:020000040800F2
:10000000C03200244D030008710300087303000888
:1000100039540090770300087903000800000000BD
:100020000000000000000000000000007B0300084A
:100030007D030008000000007F0300088103000822
:100040008303000883030008830300088303000878
:100050008303000883030008830300088303000868
:100060008303000883030008830300088303000858
:100070008303000883030008830300088303000848
:100080008303000883030008830300088303000838
:100090008303000883030008830300088303000828
:1000A0008303000883030008830300088303000818
:1000B0008303000883030008830300088303000808
:1000C00083030008830300088303000883030008F8
:1000D00083030008E10F000883030008830300087E
:1000E0008303000883030008000000008303000866
:1000F00083030008830300088303000883030008C8
:1001000083030008830300088303000883030008B7
:1001100083030008830300088303000883030008A7
:100120008303000883030008830300088303000897
:100130008303000883030008830300088303000887
:1001400000000000000000000000000000000000AF
:100150008303000883030008830300088303000867
:100160008303000883030008830300088303000857
:100170008303000883030008830300088303000847
:100180008303000883030008830300088303000837
:100190008303000883030008830300088303000827
:1001A0008303000883030008830300088303000817
:1001B0008303000883030008830300088303000807
:1001C00083030008830300088303000883030008F7
:1001D00083030008830300088303000883030008E7
:1001E00083030008830300088303000883030008D7
:1001F00083030008830300088303000883030008C7
:1002000083030008830300088303000883030008B6
:1002100083030008830300088303000883030008A6
:100220008303000883030008830300080000000024
:100230008303000883030008000000008303000814
:100240008303000883030008830300088303000876
:100250008303000883030008830300088303000866
:100260008303000883030008830300088303000856
:1002700083030008830300088303000800000000D4
:100280008303000800000000830300080000000052
:10029000000000008303000800F002F800F047F8B7
:1002A0000AA090E8000C82448344AAF10107DA45D1
:1002B00001D100F03CF8AFF2090EBAE80F0013F0DC
:1002C000010F18BFFB1A43F0010318472810000064
:1002D00048100000103A24BF78C878C1FAD85207F5
:1002E00024BF30C830C144BF04680C6070470000B0
:1002F0000023002400250026103A28BF78C1FBD82F
:10030000520728BF30C148BF0B607047642900F016
:100310009F80782900F0D880732900F0A481002004
:1003200070471FB500F0CCFF1FBD10B510BD00F029
:10033000CDF91146FFF7F5FF00F020FF00F0EBF9D3
:1003400003B4FFF7F2FF03BC00F090FEDFF84000BB
:10035000016841F470010160BFF34F8FDFF8340092
:10036000016821F040410160BFF36F8F0A480047E8
:10037000FEE7FEE7FEE7FEE7FEE7FEE7FEE7FEE755
:10038000FEE7FEE705480649064A074B70470000AE
:1003900088ED00E034EF00E099020008C00200247C
:1003A000C0320024C0120024C0120024704770B56F
:1003B000044685690068C10601D5302600E0202684
:1003C000C00707D070BDD4E9012130469047206AAC
:1003D000401C20626D1EF6D570BD70B5044685695F
:1003E0000078C00707D170BDD4E9012120209047D3
:1003F000206A401C20626D1EF6D570BD70B50C469B
:100400000546012A05D02878800600D5EA69002330
:1004100002E0012305E05B1C934202D2E05C00286D
:10042000F9D1A869E618C01AA861286A1844286298
:100430002846FFF7BCFF04E0D5E9012114F8010BC1
:100440009047B442F8D32846FFF7C7FF70BD0000BD
:100450002DE9F0410646002410687529314616A59D
:1004600010D0AFF30080002802DA404213A507E065
:1004700031688A0701D512A502E0490704D511A504
:10048000012401E0AFF3008000210A2206F12407D5
:1004900009E0B0FBF2FCB0FBF2F302FB1C003030D1
:1004A00078541846491C0028F3D123462A46304682
:1004B000BDE8F04100F06CB8000000002D00000025
:1004C0002B0000002000000070B504460D462146B8
:1004D0001068AFF300802188090502D50F4A7A44DD
:1004E00002E00E4A7A440E32002104F1240305E0B2
:1004F00000F00F060009965D5E54491C0028F7D1F4
:1005000020780023000704D5702D02D009B1022302
:1005100011322046BDE8704000F03AB8E80D000006
:100520004FF0013C50F8042B51F8043B9A4215D18E
:10053000A2EB0C03934313EACC130BD150F8042B1A
:1005400051F8043B9A4209D1A2EB0C03934313EAFE
:10055000CC13E7D04FF00000704700BFD01A01BAAB
:10056000B1FA81F101F0180122FA01F0CB40C1F19A
:100570002001DBB2C0B2C01A2CFA01F3D11A9143A8
:1005800011EAC311E6D17047704770477047704752
:100590002DE9F0470D4699469246044600F124089D
:1005A0000168880604D5E06921F01001216000E0AF
:1005B0000120A84201DD471B00E00027A1697A194C
:1005C00002EB0900081AA0612078C00602D4204678
:1005D000FFF7EDFE002608E0D4E901211AF8060035
:1005E0009047206A401C761C20624E45F4DB207840
:1005F000C0060AD52046FFF7DAFE06E0D4E901215D
:1006000030209047206A401C2062381EA7F1010765
:10061000F4DC07E0D4E9012118F805009047206ACE
:10062000401C2062281EA5F10105F3DC2046FFF7DF
:10063000D4FE2078000602D50220BDE8F087012014
:10064000FBE710B5436913B1AFF3008001E0FFF79A
:10065000D5FE012010BD127800F124010A7000229D
:100660004A700122EDE711684FF0FF32E9E7000020
:10067000074B70B50D467B4400F011F80446284640
:1006800000F052F810B14FF0FF3070BD204670BD41
:10069000E70A000001694A1C02610878704700B54A
:1006A0008FB0CDE901310021059105497944CDE9AB
:1006B00003101146684600F03CF80FB000BD000082
:1006C000E5FFFFFF00487047600200247546FFF712
:1006D000F9FFAE4605006946534620F007008546FF
:1006E00018B020B5FFF74EFEBDE820404FF00006E1
:1006F0004FF000074FF000084FF0000B21F007010A
:10070000AC46ACE8C009ACE8C009ACE8C009ACE84C
:10071000C0098D46704710B50446AFF300802046EF
:10072000BDE81040FFF70CBE40F2451CC9F2000CBA
:10073000604740F2190CC9F2000C604744F6511CA6
:10074000C9F2000C604745F2293CC9F2000C604731
:1007500045F67D6CC9F2000C604741F6015CC9F2B8
:10076000000C604741F2B17CC9F2000C604740F2D6
:10077000B92CC9F2000C604745F2994CC9F2000C43
:10078000604744F6950CC9F2000C604745F2115CD5
:10079000C9F2000C6047000010B500F087FA00F0C5
:1007A00037FA0348006840F004000149086010BDB2
:1007B0009CEF00E030B5CC1000F1200353F824305A
:1007C0004C07E50E0F24AC40A343CD1000F12004EC
:1007D00044F82530CC1000F1200353F824304C07A6
:1007E000E40E02FA04F42343CD1000F1200444F88F
:1007F000253030BD02461069084008B1012070471D
:100800000020FCE702F001030BB1018300E041830B
:1008100070472DE9F0470C46DDE908670021002507
:100820008C4600BF60E04FF0010808FA01F504EAC9
:10083000050CAC4557D1D0F800804FEA410A4FF083
:10084000030909FA0AF928EA0908C0F80080D0F873
:1008500000804FEA410902FA09F948EA0908C0F89C
:100860000080012A01D0022A27D1D0F808804FEA5F
:10087000410A4FF0030909FA0AF928EA0908C0F801
:100880000880D0F808804FEA410906FA09F948EAD9
:100890000908C0F80880D0F804904FF0010808FA61
:1008A00001F829EA0809C0F80490D0F8048003FA96
:1008B00001F948EA0908C0F80480D0F80C804FEA32
:1008C000410A4FF0030909FA0AF928EA0908C0F8B1
:1008D0000C80D0F80C804FEA410907FA09F948EA80
:1008E0000908C0F80C80491C10299CD3BDE8F0878A
:1008F0002DE9F0410746884614461D46284600F07B
:1009000033F8C5F1040007FA00F60F20284100EA89
:100910000800064306F00F06E21704EBD2625211FC
:10092000920002F1E022D2F800212146E31704EB05
:10093000D3635B11A4EB431C012303FA0CF31A43AA
:100940002046E31704EBD3635B119B0003F1E02324
:10095000C3F800210348005D40EA0610014908552C
:10096000BDE8F08100E400E00146072323EA01022C
:100970001202054B18684FF6FF031840034B18434B
:100980001043014B186070470CED00E00000FA05C1
:100990004A0A52020243014B1A60704708ED00E018
:1009A0003CB50024914D9248006840F00200904907
:1009B00008600846006840F0200008608C480C3849
:1009C000006840F480408A490C3908600120032106
:1009D00000230222CDE9001004218648FFF719FF09
:1009E0000120032100230222CDE90010402181488B
:1009F000FFF70FFF0120032100230222CDE90010A1
:100A00004FF470717C48FFF704FF092202217948F6
:100A1000FFF7D0FE0A2206217648FFF7CBFE092217
:100A200006217548FFF7C6FE092207217248FFF725
:100A3000C1FE0A2208217048FFF7BCFE0A220921E4
:100A40006D48FFF7B7FE6A486438006840F480409C
:100A50006749643908600846006820F480400860EF
:100A600000BF62482038806800F020000028F8D1DC
:100A700062485E492039086061484860084600685D
:100A800040F00100086000BF58482038806800F03E
:100A900020000028F8D14FF49C7054492039486157
:100AA00000BF52482038806800F002000028F8D0CB
:100AB0004E482038C06840F002004C492039C860D8
:100AC00000BF4A482038806800F020000028F8D194
:100AD0004FF4837045492039486100BF43482038AE
:100AE000806800F002000028F8D040482038C06834
:100AF00040F002003D492039C86000BF3B48203823
:100B0000806800F020000028F8D13E48374920399D
:100B100048610020086100BF34482038806800F038
:100B200004000028F8D030202870304820380068B1
:100B300040F004002D492039086000BF2B482038C0
:100B4000806800F002000028F8D028482038C068EB
:100B500040F0020025492039C86000BF23482038F2
:100B6000806800F020000028F8D100BF1F4820381E
:100B7000806800F020000028F8D11C492039C861A5
:100B8000EB2444F4407444F4406444F4005444F4CA
:100B9000404400BF44F4C01444F0407444F0406446
:100BA000084644611848006820F4803016490860FF
:100BB00015487030006820F001001349703108605A
:100BC0000020091D08604FF01040091D08600F4803
:100BD000091D086005200C49703108600A4800684A
:100BE00040F48030084908603CBD000020500052AD
:100BF000E044025800040258001402581003000197
:100C000001041600C003000324ED00E02D000303DF
:100C100010B50023234C236000BF00BF00BFBFF30B
:100C20004F8F00BF00BF00BF231F1868C0F34E31B5
:100C300000BFC0F3C90200BF43F6E07303EA4113EB
:100C40004FF0404404EA82742343174C236000BFF2
:100C500000BF131EA2F10102EED10B1EA1F1010192
:100C6000E7D100BF00BF00BFBFF34F8F00BF00BF81
:100C700000BF0C4B703B1B6843F48033094C703C45
:100C8000236000BF00BF00BFBFF34F8F00BF00BF96
:100C900000BF00BF00BF00BFBFF36F8F00BF00BF2A
:100CA00000BF10BD84ED00E060EF00E000BF00BFBA
:100CB00000BFBFF34F8F00BF00BF00BF00BF00BF2A
:100CC00000BFBFF36F8F00BF00BF00BF00201449FB
:100CD000086000BF00BF00BFBFF34F8F00BF00BF61
:100CE00000BF00BF00BF00BFBFF36F8F00BF00BFDA
:100CF00000BF0C48006840F400300A49086000BF9B
:100D000000BF00BFBFF34F8F00BF00BF00BF00BFD9
:100D100000BF00BFBFF36F8F00BF00BF00BF7047B1
:100D200050EF00E014ED00E02DE9F04104460D46DF
:100D300016461F4601201449086000201249103150
:100D40000860114918310860091D0860091D086014
:100D50000D4928310860091D08600B4960310860A1
:100D600001200A4908603B4632462946204600F0E9
:100D70000FF8FFF715FEFFF70FFD00214FF00060A1
:100D8000FFF706FEBDE8F0810044025808810051DB
:100D9000F0B504460D4600210020894E366826F045
:100DA0000406874F3E60864E0C36366846F4404651
:100DB000834F0C373E6000BF814E0C36366806F418
:100DC0000056002EF8D07F4E366846F480367D4FB0
:100DD0003E6001E04E1CB1B27A4E366806F4003631
:100DE0001EB947F6FF76B142F4DB47F6FF76B14213
:100DF00001D10120E2E0734E2836366846F0020643
:100E0000704F28373E603E46366846EA05163E601B
:100E10006C4E30363668671E3E436A4F30373E6050
:100E20003E463768561E47EA4626664F30373E60D4
:100E30003E4637685E1E47EA0646624F30373E60E0
:100E40003E46366846F080763E603E1F366846F085
:100E500008063F1F3E603E4636683E603E463668A6
:100E600046F440363E60574E366846F08076554F21
:100E70003E6000BF534E366806F00076002EF9D073
:100E8000504E2836366846F4C8364E4F28373E60F6
:100E90004C4E3836366840F2B7173E43494F383724
:100EA0003E603E46366846F400763E603E46366812
:100EB00046F080763E60434E2C363668414F2C37E4
:100EC0003E603E4636683E603E46366846F4002642
:100ED0003E603E46366846F400163E60394E4C365B
:100EE000366826F00306374F4C373E603E4636687C
:100EF00046F002063E60334E366846F08066314F5B
:100F00003E6000BF2F4E366806F00066002EF9D016
:100F10002C4E1836366846F008062A4F18373E60C1
:100F20003E4636683E60274E1036366846F0030669
:100F3000244F10373E6007E0224E10363668C6F365
:100F4000C201032900D100E0F6E700BF1E4E36685B
:100F500046F002061C4F3E603E46366846F02006CC
:100F60003E60184E1836366846F04006154F183762
:100F70003E603E1D366846F040063F1D3E603E46E0
:100F8000366846F480663E603E1D366846F0400690
:100F90003F1D3E600B4E366846F08006094F3E60AE
:100FA000084EF436366846F00206064FF4373E60C7
:100FB000064E366846F00106044F3E60F0BD000064
:100FC0000C480258004402580020005220040058E7
:100FD00001480249086070470400FA050CED00E082
:100FE0001F49C96901F0200109B31D49898CC8B2A4
:100FF0001C49098801F40041C9B91A49098801F45A
:10100000804161B10A2803D00021164A118020E0F6
:101010001449098841F40041124A118019E00D2851
:1010200006D11049098841F480410E4A118010E030
:101030000C490988C1F30D010B4A5054094909882C
:10104000491C084A118011460988C72901DD002181
:1010500011800349096A41F00801014A1162704791
:1010600000100140080000246C00002400BF7047FD
:101070004FF0E021096941F004014FF0E0221161D5
:1010800001490880704700000000002470B5044644
:101090001E2094FBF0F086B21E2094FBF0F100FBC2
:1010A000114085B204E01E2000F030F8701E86B2B8
:1010B000002EF8D115B1284600F028F870BD0000C8
:1010C0000146114A12884A434FF0E0235A61002238
:1010D0009A611A46126942F001021A6100BF4FF08C
:1010E000E022106900F001021AB100F48032002AF7
:1010F000F5D04FF0E022126922F001024FF0E02318
:101100001A6100229A617047000000240021134AEE
:10111000128842434FF47A735A434FF0E0235A61E6
:1011200000229A611A46126942F001021A6100BF58
:101130004FF0E022116901F001021AB101F480328E
:10114000002AF5D04FF0E022126922F001024FF0A0
:10115000E0231A6100229A61704700000000002419
:1011600000BF054AD26902F04002002AF9D0C2B29B
:10117000014B1A8570470000001001401CB5042384
:1011800002220521A020FFF7CFFD4FF4C870FFF722
:101190006FFF4FF4E131642000F034F8FFF7CEFA2E
:1011A000FFF7D1FAFFF7D4FAFFF7D7FAFFF7DAFA29
:1011B0000E4908688047FFF7DAFAFFF7DDFA4FF4C7
:1011C00078400B4908600BA010210B46C822CDE9DE
:1011D000001032211E20FFF7D4FA40F2DC50FFF756
:1011E00055FF02E00120FFF7D1FAFBE720000024C1
:1011F0000C000024504F4C415249532053544D335E
:10120000320000007CB505460C462948684300EBD7
:101210005400B0FBF4F62748006840F0010025496F
:10122000086024481030006840F010002149103157
:10123000086001200090002302224FF4C061019059
:101240001D48FFF7E6FA072209211B48FFF7B2FA0B
:1012500007220A211848FFF7ADFA1848C660002097
:10126000164908600846006808600846006808607B
:101270000846006808600846006840F008000860FA
:101280000846006840F0040008600846006840F026
:10129000200008600223252203210846FFF728FBCF
:1012A0000648006840F00100044908607CBD000069
:1012B00040420F00E0440258000002580010014074
:1012C0004FF04070E1EE100A704730313233343560
:1012D0003637383941424344454640305800303172
:1012E000323334353637383961626364656640308D
:1012F0007800000014130008000000246C000000B7
:10130000D4020008801300086C000024543200004E
:10131000F0020008000000000000000000000000D3
:10132000000000FFFFFFFFFF0000000000000000C2
:1013300000000000A56D0090F971009031650090EB
:10134000000000000000000000000000000000009D
:10135000000000000000000000000000000000008D
:10136000000000000000000000000000000000007D
:10137000000000000000000000000000D09000000D
:0200000490006A
:100000000FB4044910B503AA029800F09FF810BC81
:100010005DF814FB040000242DE9F0474FF0000ABE
:1000200089460446C0F820A02046E1688847002899
:1000300076D0252806D0D4E901219047206A401CBB
:100040002062F1E7E168204600258847C4F81CA03B
:1000500006460027C4F818A02A2E09D0304607F01B
:10006000A4F938B304EB8708303EC8F8186019E0EB
:1000700059F8041B204604EB87029161E168884728
:10008000012F064618D1E069002820DA25F0200566
:100090001DE0D8F8180000EB800006EB4000303877
:1000A000C8F818002046E1688847064607F07DF941
:1000B0000028EED1012F0AD02E2E08D12046E1686B
:1000C00088477F1C0646022F45F02005C4DBA06947
:1000D000002803DA404245F00105A061E80701D09D
:1000E00025F01005B6B1A6F14100192802D8203636
:1000F00045F400654A463146204625604D4600F0ED
:100100002AF858B1012806D0ED1D25F0070000F1AE
:10011000080989E704E005F1040985E730468AE724
:10012000206ABDE8F08710B500F008F8006810BD3F
:1001300010B5044600F002F8046010BD0048704796
:1001400060020024007B00F08000704740F2716C78
:10015000C0F6000C604740F20D3CC0F6000C604752
:1001600041F28D0CC0F6000C604740F6130CC0F64F
:10017000000C604741F2C10CC0F6000C604740F62D
:10018000050CC0F6000C604740F2F57CC0F6000C90
:10019000604740F2215CC0F6000C604740F2B57C3D
:1001A000C0F6000C604740F6D17CC0F6000C6047FA
:1001B00010B501F0AFF910BD2DE9F04107460C462E
:1001C0000026002509E036023919491B491E88B26C
:1001D00000F008F80644681CC5B2A542F3DB3046BF
:1001E000BDE8F08170B50446002601F049FA2546C5
:1001F000E11704EB11610912A02202EB4101C8B220
:1002000001F008FA01F090FAE11704EB116109120C
:10021000A4EB0121C8B201F0FDF901F085FA01F06B
:100220002FFAA12001F0F6F901F07EFA002001F08A
:10023000BBF9064601F04EFA304670BD2DE9F0419B
:1002400005460E461746002409E0E20026FA02F2AF
:10025000D1B22A1990B200F006F8601CC4B2BC42B8
:10026000F3DBBDE8F08170B504460E4601F008FAF4
:100270002546E11704EB11610912A02202EB4101AE
:10028000C8B201F0C7F901F04FFAE11704EB1161B0
:100290000912A4EB0121C8B201F0BCF901F044FA43
:1002A000304601F0B7F901F03FFA01F013FA0A20E5
:1002B000FFF756FF70BD00001CB54C48006840F0C9
:1002C00020004A49086049480830006840F00100B1
:1002D000464908310860002000900346032220218F
:1002E00001904348FFF741FF40485838006840F00C
:1002F00020003E49583908600846006820F0200078
:1003000008603A488038006820F440303749803926
:1003100008600846006840F400300860354800680E
:1003200040F480203449C1F8080300208860084662
:10033000806840F0805088600A20FFF711FF2E4847
:10034000806840F480702C4988600846C06820F4BA
:100350000050C8600846C06840F48050C860084635
:10036000C06820F44060C8600846C06820F01C00E7
:10037000C8600846C068C8600846006920F0704040
:100380000861084600691D4908401B490861084684
:10039000806820F0804088600846806840F48030A3
:1003A00088600846806840F00040886000BF1248BE
:1003B000806800F000400028F9D10F48006B20F061
:1003C0000F000D4908630846006B08630846806902
:1003D00020F0605088610846806940F06050886174
:1003E0000846806840F0010088601CBDD84402586F
:1003F000000002580823024000200240FFFF00FCDA
:100400002DE9F04106460F464FF000083348416899
:10041000002088473148808E00F40040002855D0E5
:100420002F480078012803D001202D49087002E0F0
:10043000EE20BDE8F081002443E000253AE02948A1
:1004400040882849C97990FBF1F1681C00FB0160E4
:100450002249898988422BDD224840882149C9796F
:1004600090FBF1F005FB00601C49898988421FDA86
:100470001C4880881B49897990FBF1F1601C00FBC6
:1004800001701649098C884212DD1648808815498A
:10049000897990FBF1F004FB00701049098C8842C7
:1004A00006DA1048C07904FB005000F0FF0805E0B0
:1004B000681CC5B20B488079A842C0DC00BF601C34
:1004C000C4B20848C079A042B7DC04E00020044967
:1004D00008704FF0EE084046ABE700002000002413
:1004E0006B0000246401002410B50220FFF742FED7
:1004F00010BD000010B5002240211148FFF73FFE5B
:100500001048006820F440400E4908600846006822
:1005100040F480400860002280210A48FFF72FFE47
:10052000FFF7E2FF012240210548FFF728FEFFF711
:10053000DBFF002240210248FFF721FE10BD000032
:10054000001C0258001802581CB51448006840F0FE
:100550008000124908600846006840F040000860CA
:100560000120009000230246402101900C48FFF733
:10057000FCFD0120009000230246802101900948E3
:10058000FFF7F3FD012280210648FFF7F8FD012265
:1005900040210348FFF7F3FD1CBD0000E044025872
:1005A000001C02580018025810B5002240211148C2
:1005B000FFF7E5FD1048006820F440400E49086050
:1005C0000846006840F480400860012280210A4803
:1005D000FFF7D5FDFFF788FF012240210548FFF70F
:1005E000CEFDFFF781FF002240210248FFF7C7FD43
:1005F00010BD0000001C02580018025870B50546D6
:1006000000241848006820F4404016490860084655
:10061000006808601E20FFF7ADFD002618E00022EC
:1006200040211148FFF7ABFDFFF75EFF012240219B
:100630000D48FFF7A4FD6006040E80210948FFF76E
:10064000A3FD08B1601CC4B2FFF74EFF701CC6B218
:10065000082EE4DB15B9FFF7A7FF01E0FFF74AFF1B
:10066000204670BD00180258001C025870B50446A0
:100670001648006820F440401449086008460068A5
:1006800040F480400860002240211148FFF777FDC8
:10069000002518E0E20980210C48FFF770FD600694
:1006A000040EFFF721FF012240210948FFF767FDF3
:1006B000FFF71AFF002240210548FFF760FDFFF712
:1006C00013FF681CC5B2082DE4DB70BD001802588A
:1006D000001C025810B51248006820F44040104930
:1006E00008600846006840F48040086001228021CC
:1006F0000B48FFF744FD012240210A48FFF73FFD68
:100700001E20FFF737FD002280210548FFF737FD47
:10071000FFF7EAFE002240210248FFF730FD10BD3E
:1007200000180258001C025810B51248006820F446
:100730004040104908600846006840F48040086066
:10074000002240210C48FFF71AFD002280210948B1
:10075000FFF715FD1E20FFF70DFD01224021064881
:10076000FFF70DFDFFF7C0FE012280210148FFF7D2
:1007700006FD10BD00180258001C025810B50024D8
:100780001648006820F44040144908600846006894
:100790000860012280211148FFF7F1FC012240216D
:1007A0000F48FFF7ECFCFFF79FFE09E0601CC4B2A6
:1007B000FA2C03DDFFF7B8FF012010BDFFF794FE10
:1007C00080210648FFF7E0FC0028EFD100224021FD
:1007D0000348FFF7D4FC0020EFE7000000180258A0
:1007E000001C02580EB53748006840F080003549BB
:1007F00008600846006840F480700860012000210D
:100800000B460A46CDE9001080212F48FFF7ADFCCA
:100810000120009000230246010201902B48FFF7BF
:10082000A4FCFFF791FE00224FF480712748FFF7E8
:10083000A6FC1420FFF794FC012211022348FFF7C5
:100840009EFC3220FFF78CFC00208DF8080001226E
:1008500002A900F03BF9012202A9A42000F036F918
:1008600016208DF80800012202A9802000F02EF940
:100870000C208DF80800012202A9882000F026F93A
:10088000022202A9A12000F029F89DF808003028D2
:1008900003D19DF80900032807D09DF8090001281D
:1008A00003D09DF8090002280AD19DF809009DF89F
:1008B000082000EB022106A0FFF7A2FB00200EBDDE
:1008C0000120FCE7E0440258001C025800200258B6
:1008D0004354502049443A25780D0A002DE9F0414F
:1008E00006460F461546FFF7F5FE7020FFF7BEFEE1
:1008F000FFF744FFF0B2FFF7B9FEFFF73FFFFFF746
:10090000E9FE7120FFF7B2FEFFF738FF00240BE08D
:10091000691EA14201D0012100E000210846FFF735
:100920006DFE3855601CC4B2AC42F1DBFFF7FCFE33
:10093000BDE8F08171B581B0002400265F480078E1
:10094000401C5E490870084600780A2190FBF1F2CD
:1009500001FB120018B1594800780A287EDA0122FA
:1009600001A90220FFF7BAFF9DF8040000F00F0074
:1009700000287FD09DF8040000F00F00062879DAE7
:100980009DF8040000F00F014FF6FF70884085B21B
:10099000E84380B240F4404049498886002459E049
:1009A0004748808E0121A1400840E0B3454931F815
:1009B000140004226946FFF791FF414890F8440073
:1009C00000F00100C0B19DF801009DF8001001F099
:1009D0000F0100EB01213A48203020F814109DF857
:1009E00003009DF8021001F00F0100EB01203449D3
:1009F0000C3121F814001DE09DF801009DF8001055
:100A000001F00F0100EB01202F490988081A81B27B
:100A10002B480C3020F814109DF803009DF80210AC
:100A200001F00F0100E013E000EB01202449203128
:100A300021F814009DF8000000F0F000802807D095
:100A400000211F48203020F81410143820F814100A
:100A5000601CC4B2052CA3DB012600E00AE01848A4
:100A6000808920B91648008C08B900200190002028
:100A7000124908709DF8040000F01F00A8B9104842
:100A8000808E00F4004030B10D48808E20F400408C
:100A90000B49888609E04FF6FF7009498881088470
:100AA0000846808E00F46040888604480078F0286C
:100AB00002DD0A200149087030467CBD1C0000247C
:100AC00020000024F8BA0090340100242DE9F04100
:100AD00005460E4617464FF00008FFF7FBFD702055
:100AE000FFF7C4FDFFF74AFEE8B2FFF7BFFDFFF7CF
:100AF00045FE00240BE0305DFFF7B8FDFFF73EFE3A
:100B00008046B8F1000F00D003E0601CC4B2BC42C4
:100B1000F1DB00BFFFF708FE4046BDE8F0810000B2
:100B20001FB54148006840F080003F490860084612
:100B3000006840F480700860012000210B460A46DE
:100B4000CDE9001080213948FFF70FFB012000900C
:100B500000230246010201903548FFF706FBFFF72C
:100B6000F3FC00224FF480713148FFF708FB0A20A4
:100B7000FFF7F6FA012211022D48FFF700FB0A20C9
:100B8000FFF7EEFA00200090034602468021019014
:100B90002648FFF7EAFA6420FFF7E2FA042202A9E6
:100BA00048F2401000F05CF800208DF80C0002A91B
:100BB00020A0FFF725FA22A102A8FFF7EAFA78BBE6
:100BC00002208DF80800012202A948F2400000F03E
:100BD000F9F9012202A948F2470000F041F89DF816
:100BE000080060280DDA9DF8081017A0FFF708FA32
:100BF0001A48808845F21051884202D1012000F045
:100C0000B3F90A20FFF7ACFA00208DF808000122A2
:100C100002A948F2400000F0D5F9002004B010BD50
:100C2000FFE70120FAE70000E0440258001C0258E8
:100C3000002002584354502049443A25730D0A00BD
:100C4000393134370000000044656661756C7420EA
:100C50005665723A25640D0A000000003401002434
:100C60002DE9F04105460F461646FFF733FD2820D3
:100C7000FFF7FCFCFFF782FD2812FFF7F7FCFFF7F8
:100C80007DFDE8B2FFF7F2FCFFF778FDFFF722FDEC
:100C90002920FFF7EBFCFFF771FD00240BE0711E2C
:100CA000A14201D0012100E000210846FFF7A6FC87
:100CB0003855601CC4B2B442F1DBFFF735FDBDE826
:100CC000F081000071B583B0002001900026A24899
:100CD0000078401CA0490870084600780A2190FB63
:100CE000F1F201FB120018B19B4800780A2877DA6C
:100CF000012203A948F24E10FFF7B2FF9DF80C0045
:100D000000F0800068B19DF80C0000F00F0006288C
:100D100007DA00200190012201A948F24E1000F0EC
:100D200051F99DF80C0000F00F00002858D09DF8F4
:100D30000C0000F00F000628D9DA9DF80C0000F036
:100D40000F014FF6FF70884084B28448858EE043DF
:100D500080B240F44040814988860846818981827A
:100D6000018C0185002001909EE07C48808E9DF8DA
:100D70000420012191400840002830D078499DF896
:100D8000042031F81200042202A9FFF769FF754818
:100D9000808845F2105188423ED1704890F8440056
:100DA00000F00100E8B19DF808009DF8091000EB83
:100DB000012081B2694820309DF8042020F81210EB
:100DC0009DF80A009DF80B1000EB0120C0F548705B
:100DD00081B262480C309DF8042020F812105EE0C9
:100DE00094E09DF808009DF8091000EB012081B205
:100DF0005A480C309DF8042020F812109DF80A0083
:100E00009DF80B1000EB012081B2544820309DF872
:100E1000042020F8121042E05248808844F2423107
:100E200088423CD14D4890F8440000F00100D0B118
:100E30009DF808009DF8091000EB012081B2474899
:100E40000C309DF8042020F812109DF80A009DF83F
:100E50000B1000EB012081B2404820309DF80420A7
:100E600020F812101BE09DF808009DF8091000EB17
:100E7000012081B2394820309DF8042020F812105A
:100E80009DF80A009DF80B1000EB0120C0F588705A
:100E900081B232480C309DF8042020F812109DF8E1
:100EA0000400401CC0B201909DF804000528FFF624
:100EB0005CAF0126294880892A490988884205DCD7
:100EC0002648008C2749498888421CDD9DF80C0083
:100ED00000F00F0001280ADD2048C0891F498881E1
:100EE0000846408C088400201B4908700EE01B480F
:100EF000808A1A4988810846008D088480200390E2
:100F00000846858602E00020134908709DF80C0011
:100F100000F08F00802815D11048808E00F400402A
:100F200030B10E48808E20F400400C49888609E0DC
:100F30004FF6FF700949888108840846808E00F4C6
:100F40006040888604480078F02802DD0A200249C3
:100F50000870304604B070BD1D000024200000243D
:100F6000BABB00903401002438B5054600240020A7
:100F70008DF800008DF8015000BF09E09DF80000D9
:100F80000F49095D0844C0B28DF80000601CC4B26E
:100F9000B82CF3D39DF80000C043401CC0B28DF8BC
:100FA0000000B822064948F2470000F00BF8022280
:100FB000694648F2FF0000F005F8002038BD000047
:100FC00002BB00902DE9F04104460E4617464FF053
:100FD0000008FFF77FFB2820FFF748FBFFF7CEFB59
:100FE0002012FFF743FBFFF7C9FBE0B2FFF73EFB20
:100FF000FFF7C4FB00250BE0705DFFF737FBFFF741
:10100000BDFB8046B8F1000F00D003E0681CC5B2FC
:10101000BD42F1DB00BFFFF787FB4046BDE8F08132
:101020001FB53D48006840F080003B490860084615
:10103000006840F480700860012000210B460A46D9
:10104000CDE9001080213548FFF78FF8012000908E
:1010500000230246010201903148FFF786F8FFF7AE
:1010600073FA00224FF480712D48FFF788F80A20A8
:10107000FFF776F8012211022948FFF780F80A20CD
:10108000FFF76EF800200090034602468021019091
:101090002248FFF76AF86420FFF762F8042202A9E9
:1010A00048F2401000F054F800208DF80C0002A91E
:1010B0001CA0FEF7A5FF1FA102A8FFF76AF848BB16
:1010C00002208DF80800012202A948F24000FFF733
:1010D00079FF012202A948F24700FFF7C1FD9DF800
:1010E0000800412807DA9DF8081014A0FEF788FFD1
:1010F000012000F065F90A20FFF732F800208DF892
:101100000800012202A948F24000FFF75BFF00201F
:1011100004B010BD0120FBE7E0440258001C025857
:10112000002002584354502049443A25730D0A0DBB
:101130000A00000039323731000000004465666162
:10114000756C74205665723A25640D0A0000000023
:101150002DE9F04105460F461646FFF7BBFA282059
:10116000FFF784FAFFF70AFB2812FFF77FFAFFF771
:1011700005FBE8B2FFF77AFAFFF700FBFFF7AAFAE0
:101180002920FFF773FAFFF7F9FA00240BE0711E2C
:10119000A14201D0012100E000210846FFF72EFA0C
:1011A0003855601CC4B2B442F1DBFFF7BDFABDE8AC
:1011B000F081000071B583B00020019000267C48CA
:1011C0000078401C7A490870084600780A2190FB94
:1011D000F1F201FB120018B1754800780A286EDAA6
:1011E000012203A948F24E10FFF7B2FF9DF80C0050
:1011F00000F0800068B19DF80C0000F00F000B2893
:1012000007DA00200190012201A948F24E1000F0F7
:1012100005F99DF80C0000F00F0000284FD09DF854
:101220000C0000F00F000B28D9DA9DF80C0000F03C
:101230000F014FF6FF70884084B25E48858EE04310
:1012400080B240F440405B49888608468189C1836A
:10125000018C41860020019053E05648808E9DF815
:10126000042001219140084040B353499DF80420D7
:1012700031F81200062202A9FFF76AFF4D4890F8E4
:10128000440000F00100D8B19DF80A009DF80B1051
:1012900000EB012081B2474820309DF8042020F85F
:1012A00012109DF808009DF8091000EB012081B292
:1012B00040480C309DF8042020F812101CE051E04A
:1012C0009DF80A009DF80B1000EB0120C0F5487056
:1012D00081B238480C309DF8042020F812109DF897
:1012E00008009DF8091000EB012081B23148203040
:1012F0009DF8042020F812109DF80400401CC0B294
:1013000001909DF804000A28A7DB0126294880895E
:101310002A490988884205DC2648008C27494988E3
:1013200088421CDD9DF80C0000F00F0001280ADD4A
:101330002048C0891F4988810846408C08840020C5
:101340001B4908700EE01B48C08B1A49888108466B
:10135000408E0884802003900846858602E00020A5
:10136000134908709DF80C0000F08F00802815D1FB
:101370001048808E00F4004030B10E48808E20F47A
:1013800000400C49888609E04FF6FF7009498881C2
:1013900008840846808E00F46040888604480078FF
:1013A000F02802DD0A2002490870304604B070BD02
:1013B0001E000024200000247EBC00903401002484
:1013C00038B50546002400208DF800008DF8015046
:1013D00000BF09E09DF800000F49095D0844C0B254
:1013E0008DF80000601CC4B2B82CF3D39DF8000047
:1013F000C043401CC0B28DF80000BA22064948F232
:10140000470000F00BF80222694648F2FF0000F0A6
:1014100005F8002038BD0000C4BB00902DE9F04164
:1014200004460E4617464FF00008FFF753F92820F0
:10143000FFF71CF9FFF7A2F92012FFF717F9FFF7E2
:101440009DF9E0B2FFF712F9FFF798F900250BE0DC
:10145000705DFFF70BF9FFF791F98046B8F1000FC7
:1014600000D003E0681CC5B2BD42F1DB00BFFFF74E
:101470005BF94046BDE8F08101461048C069012291
:101480008A4010430D4AD0611046006B20F4F8608A
:1014900010631046006B40EA8110106310468068AC
:1014A00040F00400906000BF0448006800F00400B1
:1014B0000028F9D00148006C80B27047002002403B
:1014C00010B5002210211248FEF759FE104800689E
:1014D00020F440600E4908600846006840F48060CF
:1014E0000860002220210A48FEF749FE0220FEF78C
:1014F00041FE012210210648FEF741FE0220FEF7C0
:1015000039FE002210210248FEF739FE10BD00000E
:10151000001C02581CB50D48006840F080000B49C3
:101520000860012000210B460246CDE90010302161
:101530000748FEF71AFE012210210548FEF71FFE9C
:10154000012220210248FEF71AFE1CBDE044025889
:10155000001C025810B5002210211248FEF70FFEA1
:101560001048006820F440600E4908600846006892
:1015700040F480600860012220210A48FEF7FFFD48
:101580000220FEF7F7FD012210210648FEF7F7FDC5
:101590000220FEF7EFFD002210210248FEF7EFFDCA
:1015A00010BD0000001C025870B505460024184804
:1015B000006820F44060164908600846006808602A
:1015C00000261AE0002210211148FEF7D8FD022063
:1015D000FEF7D0FD012210210D48FEF7D0FD600678
:1015E000040E20210A48FEF7CFFD08B1601CC4B2EA
:1015F0000120FEF7BFFD701CC6B2082EE2DB15B954
:10160000FFF7A8FF01E0FFF75BFF204670BD000079
:10161000001C025870B504461848006820F4406069
:10162000164908600846006840F48060086000229F
:1016300010211248FEF7A3FD00251BE0E20920213E
:101640000E48FEF79CFD6006040E0220FEF792FD98
:10165000012210210948FEF792FD0220FEF78AFDC3
:10166000002210210548FEF78AFD0220FEF782FDC8
:10167000681CC5B2082DE1DB70BD0000001C0258DB
:1016800010B51348006820F440601149086008460E
:10169000006840F480600860012220210C48FEF7B9
:1016A0006EFD012210210A48FEF769FD0420FEF7B5
:1016B00061FD002220210648FEF761FD0420FEF7AF
:1016C00059FD002210210248FEF759FD10BD00000F
:1016D000001C025810B51348006820F440601149FE
:1016E00008600846006840F480600860002210210D
:1016F0000C48FEF744FD002220210A48FEF73FFD7A
:101700000420FEF737FD012210210648FEF737FDC1
:101710000420FEF72FFD012220210248FEF72FFDB5
:1017200010BD0000001C025810B5002417480068C6
:1017300020F44060154908600846006808600122EE
:1017400020211248FEF71BFD0120FEF713FD0122A8
:1017500010210E48FEF713FD0120FEF70BFD07E0F8
:10176000601CC4B2FA2C03DDFFF7B4FF012010BDEA
:1017700020210648FEF708FD0028F1D100221021A3
:101780000248FEF7FCFC0020F1E70000001C0258B4
:1017900000210170054909884180044949888180F8
:1017A00004218171C171002101817047340100243D
:1017B0001CB51748006840F001001549086008464C
:1017C000006840F0040008600846006840F08000AF
:1017D0000860022000210B460A46CDE900100121D5
:1017E0000C48FEF7C2FC012000210B460A46CDE959
:1017F000001041030848FEF7B8FC012000210B4609
:101800000A46CDE900100C210448FEF7AEFC1CBDD1
:10181000E04402580000025800080258001C025818
:1018200070B5044600260D4805880D48006818B1BB
:10183000204603F0ADF80FE00848408845430021FA
:10184000084602F0A3FE03F071F8002602E0054905
:101850000C80761CAE42FAD370BD00003401002427
:10186000440100240000086010B504465C488471FF
:101870005C48006850B1204603F010F95948C08A0E
:10188000574908805748008B488010BD002C51D123
:10189000F020534908804FF4A070488008468088A3
:1018A00049F24131884205D04D48808845F21031D7
:1018B000884214D12C204A4908812A2048812B20B3
:1018C00088810846808845F21031884206D14FF45D
:1018D000A070434908804FF4F07048807BE0404896
:1018E000808845F21051884210D14FF430503C4965
:1018F00008814FF4285048814FF42C5088814FF4D0
:10190000F07008804FF44870488064E03448808864
:1019100041F6631188425ED12C20314908812B2089
:1019200048812A2088814FF4F07008804FF4487075
:10193000488050E04FF4A07029490880F02048808A
:101940000846808849F24131884205D02448808881
:1019500045F21031884207D12C20214908812A20E4
:1019600048812B20888129E01D48808845F210514C
:10197000884210D14FF43050194908814FF4285053
:1019800048814FF42C5088814FF4487008804FF400
:10199000F070488012E01248808841F66311884256
:1019A0000CD12C200E4908812A2048812B208881C7
:1019B0004FF4487008804FF4F070488008488088E1
:1019C00045F21031884206D14FF4F0700449088086
:1019D0004FF4A0704880002002F09EFC00BF54E746
:1019E00034010024440100242DE9FF4F85B08146D5
:1019F0008A460020049003900798A0EB09050898F8
:101A0000A0EB0A06CDF80890CDF804A0002D01DD6A
:101A1000012705E00DB9002702E04FF0FF376D42C6
:101A2000002E02DD4FF0010806E016B94FF0000865
:101A300002E04FF0FF387642B54201DD2C4600E06F
:101A400034464FF0000B21E0019A91B2029A90B215
:101A500000F022F80498284404900398304403903E
:101A60000498A04205DD0498001B049002983844B5
:101A700002900398A04205DD0398001B0390019893
:101A8000404401900BF101001FFA80FB601C83456C
:101A9000DADD09B0BDE8F08F70B504460D460A489E
:101AA000006830B1094829460268204603F00CF866
:101AB00009E02946204602F069FD02F037FF03489D
:101AC00000880349088070BD440100240C000024F4
:101AD000000008602DE9F04706460F4690460024B6
:101AE00045460320A0EB48093CE07A1B91B232192D
:101AF00090B2FFF7D1FF3A1B91B2721990B2FFF783
:101B0000CBFF3A1991B2721990B2FFF7C5FF7A195B
:101B100091B2321990B2FFF7BFFF7A1991B2321B1E
:101B200090B2FFF7B9FF3A1991B2721B90B2FFF76A
:101B3000B3FF7A1B91B2321B90B2FFF7ADFF3A1B95
:101B400091B2721B90B2FFF7A7FF641CB9F1000FAE
:101B500003DAA000801D814404E0601B80000A308D
:101B600081446D1EAC42C0DDBDE8F08770B504460F
:101B70000D4616464348006828B13246294620469D
:101B800002F0A2FF70BD4048808849F2413188428E
:101B900005D03D48808845F21031884214D13A4939
:101BA000488902F0B7FE201202F0A8FEE0B202F06F
:101BB000A5FE3549888902F0ADFE281202F09EFE8E
:101BC000E8B202F09BFE54E02F48808845F21051A5
:101BD000884220D12C49488902F09CFE201202F054
:101BE0008DFE29494989491C88B202F093FEE0B272
:101BF00002F084FE2449888902F08CFE281202F04B
:101C00007DFE21498989491C88B202F083FEE8B231
:101C100002F074FE2DE01C48808841F66311884272
:101C200027D11948807920B917480088401E001B29
:101C300084B21549488902F06DFE201202F05EFE62
:101C4000E0B202F05BFE201202F058FEE0B202F0B9
:101C500055FE0D49888902F05DFE281202F04EFE05
:101C6000E8B202F04BFE281202F048FEE8B202F0A1
:101C700045FE0548008905490880891C0E8000BF83
:101C800080E700004401002434010024FEFF0760C7
:101C90002DE9F84F05460E4617469846DDF8289080
:101CA0004FF0000B1448006840B143463A463146B5
:101CB0002846CDF8009002F02FFF1BE0781B401C57
:101CC0001FFA80FB344613E02146284602F05EFCF2
:101CD00002F02CFE4FF0000A06E00849A1F800903F
:101CE0000AF101001FFA80FADA45F6DB601C84B2C3
:101CF0004445E9DDBDE8F88F440100240000086098
:101D00001CB503F079FAFD4988800846808818B12F
:101D100002F0A6FF02F078BAF948006840F002002D
:101D2000F74908600846006840F018000860F44869
:101D30000C38006840F48050F1490C3908600120EB
:101D400000900023024620210190EE48FEF70DFA94
:101D50000120032100230222CDE900104EF2B371CD
:101D6000E948FEF702FA0120032100230222CDE90F
:101D700000104FF68071E548FEF7F7F90C220021BC
:101D8000E148FEF70BFA0C220121DF48FEF706FAC4
:101D90000C220421DC48FEF701FA0C220521DA4866
:101DA000FEF7FCF90C220721D748FEF7F7F90C22C1
:101DB0000821D548FEF7F2F90C220921D248FEF796
:101DC000EDF90C220A21D048FEF7E8F90C220D218A
:101DD000CD48FEF7E3F90C220E21CB48FEF7DEF9E1
:101DE0000C220F21C848FEF7D9F90C220721C74859
:101DF000FEF7D4F90C220821C448FEF7CFF90C22D3
:101E00000921C248FEF7CAF90C220A21BF48FEF791
:101E1000C5F90C220B21BD48FEF7C0F90C22114672
:101E2000BA48FEF7BBF90C220D21B848FEF7B6F907
:101E30000C220E21B548FEF7B1F90C220F21B34850
:101E4000FEF7ACF90020B24908604860B14908606B
:101E5000AF48006840F48050AD490860084600680B
:101E600040F4804008600846006840F010000860B8
:101E70000846406848600846406840F00F004860E7
:101E80000846406840F49C404860A2480068C1F899
:101E900004010846D0F8040140F00F00C1F8040125
:101EA0000846D0F8040140F47060C1F80401084607
:101EB000006840F0010008600846006840F00040FB
:101EC00008603220FEF74CF9D32002F023FD02F027
:101ED000F1F98A49888002F0EDF98849888002F09A
:101EE000E9F986498880084680884FF6FF7101EA43
:101EF00000208249888002F0DDF980498988084302
:101F00007E4988800846808849F24131884278D0ED
:101F1000D42002F0FFFC02F0CDF97849888002F06D
:101F2000C9F97649888002F0C5F974498880084665
:101F300080884FF6FF7101EA00207049888002F026
:101F4000B9F96E49898808436C49888008468088B9
:101F500045F21031884254D04FF45A4002F0DAFC76
:101F600002F0A8F9654988804FF45B4002F0D2FC8A
:101F700002F0A0F961498880084680884FF6FF7119
:101F800001EA00205D4988804FF45C4002F0C2FC09
:101F900002F090F9594989880843584988800846D1
:101FA0008088B0F5004F02D145F210508880534828
:101FB000808845F21051884223D0A12002F0AAFC6B
:101FC00002F078F94D49888002F074F94B49888015
:101FD000084680884FF6FF7101EA00204749888053
:101FE00002F068F9454989880843444988800846D1
:101FF000808845F26171884203D141F663103F4900
:1020000088803E48818844A0FDF7FAFF3B488088DD
:1020100049F24131884270D1CF2002F07BFC002090
:1020200002F06CFCC12002F069FC302002F066FC7A
:10203000ED2002F06FFC642002F060FC032002F04F
:102040005DFC122002F05AFC812002F057FCE820CF
:1020500002F060FC852002F051FC102002F04EFCE2
:102060007A2002F04BFCCB2002F054FC392002F025
:1020700045FC2C2002F042FC002002F03FFC342002
:1020800002F03CFC022002F039FCF72002F042FC96
:10209000202002F033FCEA2002F03CFC002002F099
:1020A0002DFC002002F02AFCC02002F033FC1B2093
:1020B00002F024FCC12002F02DFC012002F01EFCE5
:1020C000C52002F027FC302002F018FC302002F07E
:1020D00015FCC72002F01EFCB72002F00FFC3620D2
:1020E00002F018FC482002F009FC3A2002F012FC31
:1020F000552002F003FCB12016E0BAE034010024C0
:10210000E044025800040258000C02580010025823
:102110000040005204410052204C43442049443ABC
:1021200025780D0A0000000002F0F4FB002002F008
:10213000E5FB1A2002F0E2FBB62002F0EBFB0A20DE
:1021400002F0DCFBA22002F0D9FBF22002F0E2FB5D
:10215000002002F0D3FB262002F0DCFB012002F07D
:10216000CDFBE02002F0D6FB0F2002F0C7FB2A20B7
:1021700002F0C4FB282002F0C1FB082002F0BEFBE5
:102180000E2002F0BBFB082002F0B8FB542002F046
:10219000B5FBA92002F0B2FB432002F0AFFB0A20FE
:1021A00002F0ACFB0F2002F0A9FB002002F0A6FB1E
:1021B000002002F0A3FB002002F0A0FB002002F0B0
:1021C0009DFBE12002F0A6FB002002F097FB15200A
:1021D00002F094FB172002F091FB072002F08EFB27
:1021E000112002F08BFB062002F088FB2B2002F06E
:1021F00085FB562002F082FB3C2002F07FFB05208D
:1022000002F07CFB102002F079FB0F2002F076FB3D
:102210003F2002F073FB3F2002F070FB0F2002F022
:102220006DFB2B2002F076FB002002F067FB002004
:1022300002F064FB012002F061FB3F2002F05EFB34
:102240002A2002F067FB002002F058FB002002F079
:1022500055FB002002F052FBEF2002F04FFB112053
:1022600002F058FB7820FDF77BFF292002F052FB9B
:1022700050E5FE48808845F21031884240F07C8766
:10228000ED2002F047FB012002F038FBFE2002F0B7
:1022900035FBEE2002F03EFBDE2002F02FFB21207A
:1022A00002F02CFBF12002F035FB012002F026FBAE
:1022B000DF2002F02FFB102002F020FBC42002F0F0
:1022C00029FB8F2002F01AFBC62002F023FB00201E
:1022D00002F014FBE22002F011FBE22002F00EFB00
:1022E000E22002F00BFBBF2002F014FBAA2002F058
:1022F00005FBB02002F00EFB0D2002F0FFFA0020DB
:1023000002F0FCFA0D2002F0F9FA002002F0F6FAD1
:10231000112002F0F3FA002002F0F0FA192002F086
:10232000EDFA002002F0EAFA212002F0E7FA00209C
:1023300002F0E4FA2D2002F0E1FA002002F0DEFAC9
:102340003D2002F0DBFA002002F0D8FA5D2002F016
:10235000D5FA002002F0D2FA5D2002F0CFFA002078
:1023600002F0CCFAB12002F0D5FA802002F0C6FAD1
:10237000002002F0C3FA8B2002F0C0FA002002F025
:10238000BDFA962002F0BAFA002002F0B7FAB220A5
:1023900002F0C0FA002002F0B1FA002002F0AEFA1A
:1023A000022002F0ABFA002002F0A8FA032002F0AB
:1023B000A5FA002002F0A2FAB32002F0ABFA002046
:1023C00002F09CFA002002F099FA002002F096FA3E
:1023D000002002F093FA002002F090FA002002F0B0
:1023E0008DFA002002F08AFA002002F087FA00201D
:1023F00002F084FA002002F081FA002002F07EFA56
:10240000002002F07BFA002002F078FA002002F0AF
:1024100075FA002002F072FA002002F06FFA002034
:1024200002F06CFA002002F069FA002002F066FA6D
:10243000002002F063FA002002F060FA002002F0AF
:102440005DFA002002F05AFA002002F057FAB42098
:1024500002F060FA8B2002F051FA002002F04EFAEE
:10246000962002F04BFA002002F048FAA12002F078
:1024700045FA002002F042FAB52002F04BFA0220A1
:1024800002F03CFA002002F039FA032002F036FA9A
:10249000002002F033FA042002F030FA002002F0AB
:1024A0002DFAB62002F036FA002002F027FA0020BA
:1024B00002F024FAB72002F02DFA002002F01EFAF2
:1024C000002002F01BFA3F2002F018FA002002F070
:1024D00015FA5E2002F012FA002002F00FFA6420D2
:1024E00002F00CFA002002F009FA8C2002F006FA41
:1024F000002002F003FAAC2002F000FA002002F003
:10250000FDF9DC2002F0FAF9002002F0F7F9702062
:1025100002F0F4F9002002F0F1F9902002F0EEF957
:10252000002002F0EBF9EB2002F0E8F9002002F0C5
:10253000E5F9DC2002F0E2F9002002F0DFF9B82032
:1025400002F0E8F9002002F0D9F9002002F0D6F9F3
:10255000002002F0D3F9002002F0D0F9002002F0B0
:10256000CDF9002002F0CAF9002002F0C7F90020DE
:1025700002F0C4F9BA2002F0CDF9242002F0BEF92D
:10258000002002F0BBF9002002F0B8F9002002F0B0
:10259000B5F9C12002F0BEF9202002F0AFF9002009
:1025A00002F0ACF9542002F0A9F9002002F0A6F9DB
:1025B000FF2002F0A3F9002002F0A0F9C22002F0EF
:1025C000A9F90A2002F09AF9002002F097F90420F4
:1025D00002F094F9002002F091F9C32002F09AF978
:1025E0003C2002F08BF9002002F088F93A2002F03A
:1025F00085F9002002F082F9392002F07FF90020ED
:1026000002F07CF9372002F079F9002002F076F927
:102610003C2002F073F9002002F070F9362002F03D
:102620006DF9002002F06AF9322002F067F900200B
:1026300002F064F92F2002F061F9002002F05EF947
:102640002C2002F05BF9002002F058F9292002F05A
:1026500055F9002002F052F9262002F04FF900202F
:1026600002F04CF9242002F049F901E03401002481
:10267000002002F043F9242002F040F9002002F08B
:102680003DF9232002F03AF9002002F037F93C200E
:1026900002F034F9002002F031F9362002F02EF970
:1026A000002002F02BF9322002F028F9002002F07D
:1026B00025F92F2002F022F9002002F01FF92C202A
:1026C00002F01CF9002002F019F9292002F016F995
:1026D000002002F013F9262002F010F9002002F089
:1026E0000DF9242002F00AF9002002F007F9242055
:1026F00002F004F9002002F001F9232002F0FEF8B4
:10270000002002F0FBF8C42002F004F9622002F07D
:10271000F5F8002002F0F2F8052002F0EFF80020B2
:1027200002F0ECF8842002F0E9F8002002F0E6F86C
:10273000F02002F0E3F8002002F0E0F8182002F0A8
:10274000DDF8002002F0DAF8A42002F0D7F800202B
:1027500002F0D4F8182002F0D1F8002002F0CEF8F0
:10276000502002F0CBF8002002F0C8F80C2002F054
:10277000C5F8002002F0C2F8172002F0BFF80020D0
:1027800002F0BCF8952002F0B9F8002002F0B6F88B
:10279000F32002F0B3F8002002F0B0F8E62002F0D7
:1027A000ADF8002002F0AAF8C52002F0B3F83220FC
:1027B00002F0A4F8002002F0A1F8442002F09EF8F4
:1027C000002002F09BF8652002F098F8002002F04B
:1027D00095F8762002F092F8002002F08FF8882019
:1027E00002F08CF8002002F089F8C62002F092F87E
:1027F000202002F083F8002002F080F8172002F079
:102800007DF8002002F07AF8012002F077F800202D
:1028100002F074F8C72002F07DF8002002F06EF894
:10282000002002F06BF8002002F068F8002002F0AF
:1028300065F8C82002F06EF8002002F05FF8002072
:1028400002F05CF8002002F059F8002002F056F87F
:10285000C92002F05FF8002002F050F8002002F0DA
:102860004DF8002002F04AF8002002F047F800205E
:1028700002F044F8002002F041F8002002F03EF897
:10288000002002F03BF8002002F038F8002002F0AF
:1028900035F8002002F032F8002002F02FF8002076
:1028A00002F02CF8002002F029F8002002F026F8AF
:1028B000002002F023F8E02002F02CF8162002F0AD
:1028C0001DF8002002F01AF81C2002F017F8002072
:1028D00002F014F8212002F011F8002002F00EF8A6
:1028E000362002F00BF8002002F008F8462002F033
:1028F00005F8002002F002F8522001F0FFFF00204E
:1029000001F0FCFF642001F0F9FF002001F0F6FF68
:102910007A2001F0F3FF002001F0F0FF8B2001F09E
:10292000EDFF002001F0EAFF992001F0E7FF002011
:1029300001F0E4FFA82001F0E1FF002001F0DEFF3C
:10294000B92001F0DBFF002001F0D8FFC42001F026
:10295000D5FF002001F0D2FFCA2001F0CFFF0020F8
:1029600001F0CCFFD22001F0C9FF002001F0C6FF2A
:10297000D92001F0C3FF002001F0C0FFE02001F0EA
:10298000BDFF002001F0BAFFF32001F0B7FF0020E7
:1029900001F0B4FFE12001F0BDFF162001F0AEFF11
:1029A000002001F0ABFF1C2001F0A8FF002001F087
:1029B000A5FF222001F0A2FF002001F09FFF36209A
:1029C00001F09CFF002001F099FF452001F096FFE7
:1029D000002001F093FF522001F090FF002001F051
:1029E0008DFF642001F08AFF002001F087FF7A202C
:1029F00001F084FF002001F081FF8B2001F07EFFB9
:102A0000002001F07BFF992001F078FF002001F009
:102A100075FFA82001F072FF002001F06FFFB920C0
:102A200001F06CFF002001F069FFC42001F066FF97
:102A3000002001F063FFCA2001F060FF002001F0D8
:102A40005DFFD22001F05AFF002001F057FFD8208F
:102A500001F054FF002001F051FFE02001F04EFF93
:102A6000002001F04BFFF32001F048FF002001F0AF
:102A700045FFE22001F04EFF052001F03FFF00205E
:102A800001F03CFF0B2001F039FF002001F036FF80
:102A90001B2001F033FF002001F030FF342001F053
:102AA0002DFF002001F02AFF442001F027FF002025
:102AB00001F024FF4F2001F021FF002001F01EFF54
:102AC000612001F01BFF002001F018FF792001F0C8
:102AD00015FF002001F012FF882001F00FFF0020F9
:102AE00001F00CFF972001F009FF002001F006FF24
:102AF000A62001F003FF002001F000FFB72001F045
:102B0000FDFE002001F0FAFEC22001F0F7FE0020D9
:102B100001F0F4FEC72001F0F1FE002001F0EEFE0E
:102B2000D12001F0EBFE002001F0E8FED62001F0FC
:102B3000E5FE002001F0E2FEDD2001F0DFFE0020D6
:102B400001F0DCFEF32001F0D9FE002001F0D6FEFA
:102B5000E32001F0DFFE052001F0D0FE002001F0AF
:102B6000CDFE0A2001F0CAFE002001F0C7FE1C20A5
:102B700001F0C4FE002001F0C1FE332001F0BEFED2
:102B8000002001F0BBFE442001F0B8FE002001F05F
:102B9000B5FE502001F0B2FE002001F0AFFE622031
:102BA00001F0ACFE002001F0A9FE782001F0A6FEA5
:102BB000002001F0A3FE882001F0A0FE002001F01B
:102BC0009DFE972001F09AFE002001F097FEA620BE
:102BD00001F094FE002001F091FEB72001F08EFE7E
:102BE000002001F08BFEC22001F088FE002001F0E1
:102BF00085FEC72001F082FE002001F07FFED1207B
:102C000001F07CFE002001F079FED52001F076FE77
:102C1000002001F073FEDD2001F070FE002001F0C5
:102C20006DFEF32001F06AFE002001F067FEE42053
:102C300001F070FE012001F061FE002001F05EFE57
:102C4000012001F05BFE002001F058FE022001F09F
:102C500055FE002001F052FE2A2001F04FFE002018
:102C600001F04CFE3C2001F049FE002001F046FE40
:102C70004B2001F043FE002001F040FE5D2001F0FA
:102C80003DFE002001F03AFE742001F037FE0020E6
:102C900001F034FE842001F031FE002001F02EFE10
:102CA000932001F02BFE002001F028FEA22001F06D
:102CB00025FE002001F022FEB32001F01FFE0020BF
:102CC00001F01CFEBE2001F019FE002001F016FEEE
:102CD000C42001F013FE002001F010FECD2001F011
:102CE0000DFE002001F00AFED32001F007FE0020B7
:102CF00001F004FEDD2001F001FE002001F0FEFDE8
:102D0000F32001F0FBFD002001F0F8FDE52001F0CB
:102D100001FE002001F0F2FD002001F0EFFD002097
:102D200001F0ECFD002001F0E9FD022001F0E6FDDC
:102D3000002001F0E3FD292001F0E0FD002001F07A
:102D4000DDFD3C2001F0DAFD002001F0D7FD4B2035
:102D500001F0D4FD002001F0D1FD5D2001F0CEFD99
:102D6000002001F0CBFD742001F0C8FD002001F02F
:102D7000C5FD842001F0C2FD002001F0BFFD9320BD
:102D800001F0BCFD002001F0B9FDA22001F0B6FD6C
:102D9000002001F0B3FDB32001F0B0FD002001F0F0
:102DA000ADFDBE2001F0AAFD002001F0A7FDC4206A
:102DB00001F0A4FD002001F0A1FDCD2001F09EFD59
:102DC000002001F09BFDD32001F098FD002001F0D0
:102DD00095FDDC2001F092FD002001F08FFDF32035
:102DE00001F08CFD002001F089FDE62001F092FD4C
:102DF000112001F083FD002001F080FD342001F05E
:102E00007DFD002001F07AFD562001F077FD0020C5
:102E100001F074FD762001F071FD002001F06EFDDF
:102E2000772001F06BFD002001F068FD662001F0C5
:102E300065FD002001F062FD882001F05FFD0020AB
:102E400001F05CFD992001F059FD002001F056FDD4
:102E5000BB2001F053FD002001F050FD992001F04E
:102E60004DFD002001F04AFD662001F047FD0020E5
:102E700001F044FD552001F041FD002001F03EFD30
:102E8000552001F03BFD002001F038FD452001F008
:102E900035FD002001F032FD432001F02FFD002020
:102EA00001F02CFD442001F029FD002001F026FD59
:102EB000E72001F02FFD322001F020FD002001F07D
:102EC0001DFD552001F01AFD002001F017FD7620B0
:102ED00001F014FD002001F011FD662001F00EFD4F
:102EE000002001F00BFD672001F008FD002001F03B
:102EF00005FD672001F002FD002001F0FFFC8720A6
:102F000001F0FCFC002001F0F9FC992001F0F6FC36
:102F1000002001F0F3FCBB2001F0F0FC002001F0E8
:102F2000EDFC992001F0EAFC002001F0E7FC77209D
:102F300001F0E4FC002001F0E1FC442001F0DEFCA3
:102F4000002001F0DBFC562001F0D8FC002001F04D
:102F5000D5FC232001F0D2FC002001F0CFFC33206F
:102F600001F0CCFC002001F0C9FC452001F0C6FCBA
:102F7000002001F0C3FCE82001F0CCFC002001F0AF
:102F8000BDFC002001F0BAFC992001F0B7FC002044
:102F900001F0B4FC872001F0B1FC002001F0AEFC90
:102FA000882001F0ABFC002001F0A8FC772001F0A4
:102FB000A5FC002001F0A2FC662001F09FFC00208F
:102FC00001F09CFC882001F099FC002001F096FCA7
:102FD000AA2001F093FC002001F090FCBB2001F03E
:102FE0008DFC002001F08AFC992001F087FC002074
:102FF00001F084FC662001F081FC002001F07EFCE1
:10300000552001F07BFC002001F078FC552001F0F8
:1030100075FC002001F072FC442001F06FFC0020E0
:1030200001F06CFC442001F069FC002001F066FC1A
:10303000552001F063FC002001F060FCE92001F064
:1030400069FCAA2001F05AFC002001F057FC002086
:1030500001F054FC002001F051FC002001F05AFC6A
:10306000AA2001F04BFCCF2001F054FC002001F01D
:1030700045FC002001F042FC002001F03FFC002054
:1030800001F03CFC002001F039FC002001F036FC8E
:10309000002001F033FC002001F030FC002001F0A2
:1030A0002DFC002001F02AFC002001F027FC00206C
:1030B00001F024FC002001F021FC002001F01EFCA6
:1030C000002001F01BFC002001F018FC002001F0A2
:1030D00015FCF02001F01EFC002001F00FFC502038
:1030E00001F00CFC002001F009FC002001F006FCBE
:1030F000002001F003FCF32001F00CFC002001F0A3
:10310000FDFBF92001F006FC062001F0F7FB102082
:1031100001F0F4FB292001F0F1FB002001F0EEFBAF
:103120003A2001F0F7FB552001F0E8FB112001F0F7
:10313000F1FB6420FDF714F8292001F0EBFB3520AA
:1031400001F0E8FB002001F0D9FB512001F0E2FB87
:10315000FF2001F0D3FB532001F0DCFB2C2001F019
:10316000CDFB552001F0D6FB822001F0C7FB2C20BF
:1031700001F0D0FB01F048B8FE48808845F21051BC
:1031800088427DD155214FF4704001F0D9FBAA212E
:103190004FF2010001F0D4FB52214FF2020001F086
:1031A000CFFB08214FF2030001F0CAFB01214FF2CF
:1031B000040001F0C5FB0D214FF4304001F0C0FBCD
:1031C0000D214BF2010001F0BBFB0D214BF202007F
:1031D00001F0B6FB34214FF4364001F0B1FB34214D
:1031E0004BF2016001F0ACFB34214BF2026001F0C4
:1031F000A7FB0D214FF4314001F0A2FB0D214BF252
:10320000011001F09DFB0D214BF2021001F098FB23
:1032100034214FF4374001F093FB34214BF201701D
:1032200001F08EFB34214BF2027001F089FB00218A
:103230004FF4324001F084FB00214BF2012001F0F9
:103240007FFB00214BF2022001F07AFB24214FF496
:10325000384001F075FB24214BF6010001F070FBB2
:1032600024214BF6020001F06BFB01214FF43F409B
:1032700001F066FB0F214FF4334001F061FB00E0E9
:10328000FDE30F214BF2013001F05AFB0F214BF20D
:10329000023001F055FB34214FF4394001F050FB6E
:1032A00034214BF6011001F04BFB34214BF6021098
:1032B00001F046FB08214FF4354001F041FB0821A5
:1032C0004BF2015001F03CFB08214BF2025001F09F
:1032D00037FB03214FF4424001F032FB24214FF42D
:1032E0003A4001F02DFB24214BF6012001F028FB90
:1032F00024214BF6022001F023FB00214FF43C4037
:1033000001F01EFB78214BF6014001F019FB002172
:103310004BF6024001F014FB00214FF43D4001F058
:103320000FFB78214BF6015001F00AFB00214BF610
:10333000025001F005FB00214FF43E4001F000FB7C
:1033400064214BF6016001F0FBFA00214FF451407B
:1033500001F0F6FA33214DF2011001F0F1FA0021EB
:103360004DF2021001F0ECFA34214DF2031001F09D
:10337000E7FA00214DF2041001F0E2FA3A214DF291
:10338000051001F0DDFA00214DF2061001F0D8FA27
:103390004A214DF2071001F0D3FA00214DF2081036
:1033A00001F0CEFA5C214DF2091001F0C9FA0021BA
:1033B0004DF20A1001F0C4FA81214DF20B1001F018
:1033C000BFFA00214DF20C1001F0BAFAA6214DF21D
:1033D0000D1001F0B5FA00214DF20E1001F0B0FA17
:1033E000E5214DF20F1001F0ABFA01214DF2101062
:1033F00001F0A6FA13214DF2111001F0A1FA0121FA
:103400004DF2121001F09CFA54214DF2131001F00C
:1034100097FA01214DF2141001F092FA82214DF237
:10342000151001F08DFA01214DF2161001F088FA05
:10343000CA214DF2171001F083FA02214DF2181043
:1034400001F07EFA00214DF2191001F079FA022103
:103450004DF21A1001F074FA01214DF21B1001F027
:103460006FFA02214DF21C1001F06AFA34214DF27C
:103470001D1001F065FA02214DF21E1001F060FAF4
:1034800067214DF21F1001F05BFA02214DF220106E
:1034900001F056FA84214DF2211001F051FA022177
:1034A0004DF2221001F04CFAA4214DF2231001F04C
:1034B00047FA02214DF2241001F042FAB7214DF2F1
:1034C000251001F03DFA02214DF2261001F038FAE4
:1034D000CF214DF2271001F033FA02214DF22810CE
:1034E00001F02EFADE214DF2291001F029FA022115
:1034F0004DF22A1001F024FAF2214DF22B1001F0C6
:103500001FFA02214DF22C1001F01AFAFE214DF2A1
:103510002D1001F015FA03214DF22E1001F010FAD2
:1035200010214DF22F1001F00BFA03214DF2301053
:1035300001F006FA33214DF2311001F001FA0321B6
:103540004DF2321001F0FCF96D214DF2331001F013
:10355000F7F900214FF4524001F0F2F933214DF216
:10356000012001F0EDF900214DF2022001F0E8F90F
:10357000342101E0340100244DF2032001F0E0F990
:1035800000214DF2042001F0DBF93A214DF2052033
:1035900001F0D6F900214DF2062001F0D1F94A21BF
:1035A0004DF2072001F0CCF900214DF2082001F086
:1035B000C7F95C214DF2092001F0C2F900214DF25A
:1035C0000A2001F0BDF981214DF20B2001F0B8F97C
:1035D00000214DF20C2001F0B3F9A6214DF20D208F
:1035E00001F0AEF900214DF20E2001F0A9F9E5211C
:1035F0004DF20F2001F0A4F901214DF2102001F04D
:103600009FF913214DF2112001F09AF901214DF299
:10361000122001F095F954214DF2132001F090F998
:1036200001214DF2142001F08BF982214DF2152079
:1036300001F086F901214DF2162001F081F9CA212D
:103640004DF2172001F07CF902214DF2182001F013
:1036500077F900214DF2192001F072F902214DF2A3
:103660001A2001F06DF901214DF21B2001F068F9DB
:1036700002214DF21C2001F063F934214DF21D208E
:1036800001F05EF902214DF21E2001F059F9672187
:103690004DF21F2001F054F902214DF2202001F0DB
:1036A0004FF984214DF2212001F04AF902214DF217
:1036B000222001F045F9A4214DF2232001F040F928
:1036C00002214DF2242001F03BF9B7214DF22520D3
:1036D00001F036F902214DF2262001F031F9CF2117
:1036E0004DF2272001F02CF902214DF2282001F0A3
:1036F00027F9DE214DF2292001F022F902214DF2B5
:103700002A2001F01DF9F2214DF22B2001F018F9C9
:1037100002214DF22C2001F013F9FE214DF22D2053
:1037200001F00EF903214DF22E2001F009F91021CC
:103730004DF22F2001F004F903214DF2302001F069
:10374000FFF833214DF2312001F0FAF803214DF258
:10375000322001F0F5F86D214DF2332001F0F0F840
:1037600000214FF4534001F0EBF833214DF20130CA
:1037700001F0E6F800214DF2023001F0E1F83421C9
:103780004DF2033001F0DCF800214DF2043001F07D
:10379000D7F83A214DF2053001F0D2F800214DF270
:1037A000063001F0CDF84A214DF2073001F0C8F89B
:1037B00000214DF2083001F0C3F85C214DF20930D0
:1037C00001F0BEF800214DF20A3001F0B9F8812174
:1037D0004DF20B3001F0B4F800214DF20C3001F045
:1037E000AFF8A6214DF20D3001F0AAF800214DF2FC
:1037F0000E3001F0A5F8E5214DF20F3001F0A0F8F0
:1038000001214DF2103001F09BF813214DF21130DF
:1038100001F096F801214DF2123001F091F8542197
:103820004DF2133001F08CF801214DF2143001F00B
:1038300087F882214DF2153001F082F801214DF216
:10384000163001F07DF8CA214DF2173001F078F8FA
:1038500002214DF2183001F073F800214DF21930B9
:1038600001F06EF802214DF21A3001F069F80121E1
:103870004DF21B3001F064F802214DF21C3001F0D2
:103880005FF834214DF21D3001F05AF802214DF25B
:103890001E3001F055F867214DF21F3001F050F84D
:1038A00002214DF2203001F04BF884214DF22130FD
:1038B00001F046F802214DF2223001F041F8A42136
:1038C0004DF2233001F03CF802214DF2243001F09A
:1038D00037F8B7214DF2253001F032F802214DF2D0
:1038E000263001F02DF8CF214DF2273001F028F8D5
:1038F00002214DF2283001F023F8DE214DF229306B
:1039000001F01EF802214DF22A3001F019F8F221DF
:103910004DF22B3001F014F802214DF22C3001F061
:103920000FF8FE214DF22D3001F00AF803214DF27F
:103930002E3001F005F810214DF22F3001F000F883
:1039400003214DF2303000F0FBFF33214DF23130D6
:1039500000F0F6FF03214DF2323000F0F1FF6D214F
:103960004DF2333000F0ECFF00214FF4544000F0F2
:10397000E7FF33214DF2014000F0E2FF00214DF25C
:10398000024000F0DDFF34214DF2034000F0D8FF8B
:1039900000214DF2044000F0D3FF3A214DF20540E2
:1039A00000F0CEFF00214DF2064000F0C9FF4A2191
:1039B0004DF2074000F0C4FF00214DF2084000F036
:1039C000BFFF5C214DF2094000F0BAFF00214DF22B
:1039D0000A4000F0B5FF81214DF20B4000F0B0FF2E
:1039E00000214DF20C4000F0ABFFA6214DF20D403E
:1039F00000F0A6FF00214DF20E4000F0A1FFE521EE
:103A00004DF20F4000F09CFF01214DF2104000F0FC
:103A100097FF13214DF2114000F092FF01214DF26A
:103A2000124000F08DFF54214DF2134000F088FF4A
:103A300001214DF2144000F083FF82214DF2154028
:103A400000F07EFF01214DF2164000F079FFCA21FF
:103A50004DF2174000F074FF02214DF2184000F0C3
:103A60006FFF00214DF2194000F06AFF02214DF274
:103A70001A4000F065FF01214DF21B4000E005E314
:103A800000F05EFF02214DF21C4000F059FF34218E
:103A90004DF21D4000F054FF02214DF21E4000F097
:103AA0004FFF67214DF21F4000F04AFF02214DF207
:103AB000204000F045FF84214DF2214000F040FFFE
:103AC00002214DF2224000F03BFFA4214DF22340A1
:103AD00000F036FF02214DF2244000F031FFB72103
:103AE0004DF2254000F02CFF02214DF2264000F05F
:103AF00027FFCF214DF2274000F022FF02214DF297
:103B0000284000F01DFFDE214DF2294000F018FF93
:103B100002214DF22A4000F013FFF2214DF22B401A
:103B200000F00EFF02214DF22C4000F009FFFE21B3
:103B30004DF22D4000F004FF03214DF22E4000F025
:103B4000FFFE10214DF22F4000F0FAFE03214DF24E
:103B5000304000F0F5FE33214DF2314000F0F0FE30
:103B600003214DF2324000F0EBFE6D214DF2334067
:103B700000F0E6FE00214FF4554000F0E1FE332155
:103B80004DF2015000F0DCFE00214DF2025000F039
:103B9000D7FE34214DF2035000F0D2FE00214DF249
:103BA000045000F0CDFE3A214DF2055000F0C8FE61
:103BB00000214DF2065000F0C3FE4A214DF207509D
:103BC00000F0BEFE00214DF2085000F0B9FE5C216D
:103BD0004DF2095000F0B4FE00214DF20A5000F001
:103BE000AFFE81214DF20B5000F0AAFE00214DF2F4
:103BF0000C5000F0A5FEA6214DF20D5000F0A0FEE5
:103C000000214DF20E5000F09BFEE5214DF20F50C9
:103C100000F096FE01214DF2105000F091FE1321AC
:103C20004DF2115000F08CFE01214DF2125000F0C7
:103C300087FE54214DF2135000F082FE01214DF217
:103C4000145000F07DFE82214DF2155000F078FEF8
:103C500001214DF2165000F073FECA214DF21750AB
:103C600000F06EFE02214DF2185000F069FE0021B6
:103C70004DF2195000F064FE02214DF21A5000F08E
:103C80005FFE01214DF21B5000F05AFE02214DF261
:103C90001C5000F055FE34214DF21D5000F050FE36
:103CA00002214DF21E5000F04BFE67214DF21F50D5
:103CB00000F046FE02214DF2205000F041FE84212A
:103CC0004DF2215000F03CFE02214DF2225000F056
:103CD00037FEA4214DF2235000F032FE02214DF2B6
:103CE000245000F02DFEB7214DF2255000F028FEA3
:103CF00002214DF2265000F023FECF214DF2275035
:103D000000F01EFE02214DF2285000F019FEDE21C7
:103D10004DF2295000F014FE02214DF22A5000F01D
:103D20000FFEF2214DF22B5000F00AFE02214DF25F
:103D30002C5000F005FEFE214DF22D5000F000FE4B
:103D400003214DF22E5000F0FBFD10214DF22F50BB
:103D500000F0F6FD03214DF2305000F0F1FD33216B
:103D60004DF2315000F0ECFD03214DF2325000F0E5
:103D7000E7FD6D214DF2335000F0E2FD00214FF4DC
:103D8000564000F0DDFD33214DF2016000F0D8FD1A
:103D900000214DF2026000F0D3FD34214DF20360AA
:103DA00000F0CEFD00214DF2046000F0C9FD3A2183
:103DB0004DF2056000F0C4FD00214DF2066000F0F8
:103DC000BFFD4A214DF2076000F0BAFD00214DF21F
:103DD000086000F0B5FD5C214DF2096000F0B0FD17
:103DE00000214DF20A6000F0ABFD81214DF20B6025
:103DF00000F0A6FD00214DF20C6000F0A1FDA6210F
:103E00004DF20D6000F09CFD00214DF20E6000F0BF
:103E100097FDE5214DF20F6000F092FD01214DF27A
:103E2000106000F08DFD13214DF2116000F088FD4F
:103E300001214DF2126000F083FD54214DF2136018
:103E400000F07EFD01214DF2146000F079FD822129
:103E50004DF2156000F074FD01214DF2166000F086
:103E60006FFDCA214DF2176000F06AFD02214DF28C
:103E7000186000F065FD00214DF2196000F060FD52
:103E800002214DF21A6000F05BFD01214DF21B6032
:103E900000F056FD02214DF21C6000F051FD34216E
:103EA0004DF21D6000F04CFD02214DF21E6000F04D
:103EB00047FD67214DF21F6000F042FD02214DF2E7
:103EC000206000F03DFD84214DF2216000F038FDBE
:103ED00002214DF2226000F033FDA4214DF2236057
:103EE00000F02EFD02214DF2246000F029FDB721E3
:103EF0004DF2256000F024FD02214DF2266000F015
:103F00001FFDCF214DF2276000F01AFD02214DF276
:103F1000286000F015FDDE214DF2296000F010FD53
:103F200002214DF22A6000F00BFDF2214DF22B60D0
:103F300000F006FD02214DF22C6000F001FDFE2193
:103F40004DF22D6000F0FCFC03214DF22E6000F0DC
:103F5000F7FC10214DF22F6000F0F2FC03214DF22E
:103F6000306000F0EDFC33214DF2316000F0E8FCF0
:103F700003214DF2326000F0E3FC6D214DF233601D
:103F800000F0DEFC55214FF4704000F0D9FCAA216E
:103F90004FF2010000F0D4FC52214FF2020000F079
:103FA000CFFC08214FF2030000F0CAFC00214FF2C1
:103FB000040000F0C5FCCC214FF4314000F0C0FCFF
:103FC00000214BF2011000F0BBFC05214FF43640FC
:103FD00000F0B6FC70214FF4374000F0B1FC7021C6
:103FE0004BF2017000F0ACFC01214FF4384000F0BE
:103FF000A7FC03214BF6010000F0A2FC03214BF6C5
:10400000020000F09DFC03214BF6030000F098FC39
:1040100002214FF43C4000F093FC00214BF601409C
:1040200000F08EFC00214BF6024000F089FCD0210C
:104030004FF4494000F084FC02214CF6011000F0DE
:104040007FFC50214CF6021000F07AFC50214CF617
:10405000031000F075FC50214CF6041000F070FCC9
:1040600000214FF4545000F06BFC55214FF4685080
:1040700000F066FC4FF4885000F04CFC7820FCF710
:1040800079F84FF4245000F045FCBDE07F4880886B
:1040900041F663118842F8D1E22000F03BFC1D207C
:1040A00000F02CFC022000F029FC042000F026FC8B
:1040B0006420FCF75FF8E02000F02CFC012000F009
:1040C0001DFC0A20FCF74CF8E02000F023FC032044
:1040D00000F014FC0C20FCF743F8012000F01AFC5F
:1040E0000A20FCF73DF8E62000F014FC2F2000F039
:1040F00005FCFF2000F002FCFF2000F0FFFBB020D9
:1041000000F008FC202000F0F9FB002000F0F6FB96
:10411000032000F0F3FB40F21F3000F0EFFB012022
:1041200000F0ECFB40F2DF1000F0E8FB002000F0B4
:10413000E5FBB42000F0EEFB042000F0DFFB40F2D2
:104140001F4000F0DBFB002000F0D8FB2E2000F029
:10415000D5FB002000F0D2FB002000F0CFFB0020B8
:1041600000F0CCFB002000F0C9FBB62000F0D2FB31
:10417000022000F0C3FB4FF4037000F0BFFB0020EF
:1041800000F0BCFB172000F0B9FB152000F0B6FBD7
:10419000002000F0B3FB002000F0B0FBF02000F0A6
:1041A000B9FB032000F0AAFB292000F0B3FBD020CC
:1041B00000F0B0FB002000F0A1FBBE2000F0AAFB45
:1041C000052000F09BFBFE2000F098FB012000F092
:1041D00095FB002000F092FB002000F08FFB0020F8
:1041E00000F08CFBB82000F095FB032000F086FB6C
:1041F000012000F083FBBA2000F08CFB012000F0CE
:104200007DFB642000F060F82048808849F241314D
:10421000884211D01D48808845F2103188420BD069
:104220001A48808845F21051884205D01748808886
:1042300041F6631188421BD11548006820F00F0039
:104240001449C1F804010846D0F8040120F4706054
:10425000C1F804010846D0F8040140F00400C1F898
:1042600004010846D0F8040140F48060C1F804015C
:104270000020FDF7F9FA012220210748FBF77FFF14
:104280004FF6FF70FDF7CCFA1CBD0000340100248E
:1042900004410052004000520004025810B502468A
:1042A000012000E050430B1EA1F10104E1B2F9D15D
:1042B00010BD000008B5034800880090BDF800005C
:1042C00008BD00000000086000B50246BE2000F0F6
:1042D00021FB052000F012FB00EE102AB8EE400B87
:1042E0009FED0B1B20EE010BBCEEC00B10EE101A65
:1042F00088B200F003FB012000F000FBFF2000F07B
:10430000FDFA002000F0FAFA002000F0F7FA00BDF4
:104310006666666666660440F0B5054600240027BA
:1043200099488079012805D19748808841F6631122
:10433000884208D194488079F0B99348808841F642
:104340006311884218D1082D15D2DFE805F0040664
:10435000080A0C0E101206250DE007250BE00425B7
:1043600009E0052507E0012505E0002503E0032518
:1043700001E0022500BF00BF8348808849F2413137
:10438000884211D08048808845F2103188420BD095
:104390007D48808845F21051884205D07A4880884F
:1043A00041F6631188427DD1082D1CD2DFE805F06B
:1043B0000406090C0F12151800BF14E044F0800425
:1043C00011E044F040040EE044F0C0040BE044F07F
:1043D000200408E044F0600405E044F0A00402E09A
:1043E00044F0E00400BF00BF6748808845F21051E8
:1043F000884202D14FF4585700E03627624880883F
:1044000045F2103188420DD05F48808845F2105146
:10441000884207D05C48808841F66311884201D009
:1044200044F008042146384600F08AFA564880884D
:1044300041F6631188421DD004F0200068B1524853
:10444000008851494988884214DA4F4806884088D4
:104450004D490880084646800CE04B4800884A4990
:104460004988884206DD48480688408846490880D1
:10447000084646804448808845F21051884254D10D
:104480004149488900F046FA002000F037FA3E49D9
:104490004989491C88B200F03DFA002000F02EFA4C
:1044A000394900E06FE04989891C88B200F032FA8E
:1044B00035490988491EC1F30F2000F01FFA32491F
:1044C0004989C91C88B200F025FA2F490978491E8C
:1044D000C8B200F013FA2C49888900F01BFA0020BA
:1044E00000F00CFA28498989491C88B200F012FAB8
:1044F000002000F003FA24498989891C88B200F061
:1045000009FA21494988491EC1F30F2000F0F6F944
:104510001D498989C91C88B200F0FCF91A498978BB
:10452000491EC8B200F0EAF92DE01749488900F0A9
:10453000F1F9002000F0E2F9002000F0DFF9124963
:104540000988491EC1F30F2000F0D8F90E490978F7
:10455000491EC8B200F0D2F90B49888900F0DAF997
:10456000002000F0CBF9002000F0C8F90649498886
:10457000491EC1F30F2000F0C1F903498978491E93
:10458000C8B200F0BBF9F0BD3401002410B50246FA
:104590000C464B48808849F24131884205D0484852
:1045A000808845F21031884214D14549488900F08D
:1045B000B1F9101200F0A2F9D0B200F09FF9404911
:1045C000888900F0A7F9201200F098F9E0B200F015
:1045D00095F973E03A48808841F66311884247D1E3
:1045E00037488079A8B936480088401E801A82B2C0
:1045F0003349488900F08EF9002000F07FF900204F
:1046000000F07CF9101200F079F9D0B200F076F9E0
:1046100016E02B49488900F07DF9101200F06EF980
:10462000D0B200F06BF926490988491EC1F30F206A
:1046300000F064F922490978491EC8B200F05EF919
:104640001F49888900F066F9201200F057F9E0B29E
:1046500000F054F91A494988491EC1F30F2000F0AF
:104660004DF917498978491EC8B200F047F925E08D
:104670001348808845F2105188421FD1104948895B
:1046800000F048F9101200F039F90D494989491C28
:1046900088B200F03FF9D0B200F030F908498889BB
:1046A00000F038F9201200F029F905498989491CE0
:1046B00088B200F02FF9E0B200F020F910BD000040
:1046C000340100242DE9F84F80460F4616461C465B
:1046D000BB462046E31704EB5373DB1021464FEA39
:1046E000E47C04EB5C7C4FEAEC0CA4EBCC0CBCF15E
:1046F000000F02D04FF0010C01E04FF0000C6344BA
:10470000224604EBD27C4FEA6C0C03FB0CF3DBB2C9
:104710000093A6F12000C6B200255EE00C2C07D164
:1047200006EB46002F4901EB800010F805901BE0D6
:10473000102C05D12C4800EB061010F8059013E062
:10474000182C07D106EBC600284901EB800010F8B1
